{
  "_format": "hh-sol-artifact-1",
  "contractName": "PhilCap",
  "sourceName": "contracts/phil.sol",
  "abi": [
    {
      "inputs": [],
      "stateMutability": "nonpayable",
      "type": "constructor"
    },
    {
      "anonymous": false,
      "inputs": [
        {
          "indexed": true,
          "internalType": "address",
          "name": "owner",
          "type": "address"
        },
        {
          "indexed": true,
          "internalType": "address",
          "name": "approved",
          "type": "address"
        },
        {
          "indexed": true,
          "internalType": "uint256",
          "name": "tokenId",
          "type": "uint256"
        }
      ],
      "name": "Approval",
      "type": "event"
    },
    {
      "anonymous": false,
      "inputs": [
        {
          "indexed": true,
          "internalType": "address",
          "name": "owner",
          "type": "address"
        },
        {
          "indexed": true,
          "internalType": "address",
          "name": "operator",
          "type": "address"
        },
        {
          "indexed": false,
          "internalType": "bool",
          "name": "approved",
          "type": "bool"
        }
      ],
      "name": "ApprovalForAll",
      "type": "event"
    },
    {
      "anonymous": false,
      "inputs": [
        {
          "indexed": true,
          "internalType": "address",
          "name": "previousOwner",
          "type": "address"
        },
        {
          "indexed": true,
          "internalType": "address",
          "name": "newOwner",
          "type": "address"
        }
      ],
      "name": "OwnershipTransferred",
      "type": "event"
    },
    {
      "anonymous": false,
      "inputs": [
        {
          "indexed": false,
          "internalType": "address",
          "name": "account",
          "type": "address"
        }
      ],
      "name": "Paused",
      "type": "event"
    },
    {
      "anonymous": false,
      "inputs": [
        {
          "indexed": true,
          "internalType": "address",
          "name": "from",
          "type": "address"
        },
        {
          "indexed": true,
          "internalType": "address",
          "name": "to",
          "type": "address"
        },
        {
          "indexed": true,
          "internalType": "uint256",
          "name": "tokenId",
          "type": "uint256"
        }
      ],
      "name": "Transfer",
      "type": "event"
    },
    {
      "anonymous": false,
      "inputs": [
        {
          "indexed": false,
          "internalType": "address",
          "name": "account",
          "type": "address"
        }
      ],
      "name": "Unpaused",
      "type": "event"
    },
    {
      "inputs": [
        {
          "internalType": "address",
          "name": "to",
          "type": "address"
        },
        {
          "internalType": "uint256",
          "name": "tokenId",
          "type": "uint256"
        }
      ],
      "name": "approve",
      "outputs": [],
      "stateMutability": "nonpayable",
      "type": "function"
    },
    {
      "inputs": [
        {
          "internalType": "address",
          "name": "owner",
          "type": "address"
        }
      ],
      "name": "balanceOf",
      "outputs": [
        {
          "internalType": "uint256",
          "name": "",
          "type": "uint256"
        }
      ],
      "stateMutability": "view",
      "type": "function"
    },
    {
      "inputs": [
        {
          "internalType": "uint256",
          "name": "tokenId",
          "type": "uint256"
        }
      ],
      "name": "burn",
      "outputs": [],
      "stateMutability": "nonpayable",
      "type": "function"
    },
    {
      "inputs": [
        {
          "internalType": "uint256",
          "name": "tokenId",
          "type": "uint256"
        }
      ],
      "name": "getApproved",
      "outputs": [
        {
          "internalType": "address",
          "name": "",
          "type": "address"
        }
      ],
      "stateMutability": "view",
      "type": "function"
    },
    {
      "inputs": [
        {
          "internalType": "address",
          "name": "owner",
          "type": "address"
        },
        {
          "internalType": "address",
          "name": "operator",
          "type": "address"
        }
      ],
      "name": "isApprovedForAll",
      "outputs": [
        {
          "internalType": "bool",
          "name": "",
          "type": "bool"
        }
      ],
      "stateMutability": "view",
      "type": "function"
    },
    {
      "inputs": [],
      "name": "name",
      "outputs": [
        {
          "internalType": "string",
          "name": "",
          "type": "string"
        }
      ],
      "stateMutability": "view",
      "type": "function"
    },
    {
      "inputs": [],
      "name": "owner",
      "outputs": [
        {
          "internalType": "address",
          "name": "",
          "type": "address"
        }
      ],
      "stateMutability": "view",
      "type": "function"
    },
    {
      "inputs": [
        {
          "internalType": "uint256",
          "name": "tokenId",
          "type": "uint256"
        }
      ],
      "name": "ownerOf",
      "outputs": [
        {
          "internalType": "address",
          "name": "",
          "type": "address"
        }
      ],
      "stateMutability": "view",
      "type": "function"
    },
    {
      "inputs": [],
      "name": "pause",
      "outputs": [],
      "stateMutability": "nonpayable",
      "type": "function"
    },
    {
      "inputs": [],
      "name": "paused",
      "outputs": [
        {
          "internalType": "bool",
          "name": "",
          "type": "bool"
        }
      ],
      "stateMutability": "view",
      "type": "function"
    },
    {
      "inputs": [],
      "name": "renounceOwnership",
      "outputs": [],
      "stateMutability": "nonpayable",
      "type": "function"
    },
    {
      "inputs": [
        {
          "internalType": "address",
          "name": "to",
          "type": "address"
        }
      ],
      "name": "safeMint",
      "outputs": [],
      "stateMutability": "nonpayable",
      "type": "function"
    },
    {
      "inputs": [
        {
          "internalType": "address",
          "name": "from",
          "type": "address"
        },
        {
          "internalType": "address",
          "name": "to",
          "type": "address"
        },
        {
          "internalType": "uint256",
          "name": "tokenId",
          "type": "uint256"
        }
      ],
      "name": "safeTransferFrom",
      "outputs": [],
      "stateMutability": "nonpayable",
      "type": "function"
    },
    {
      "inputs": [
        {
          "internalType": "address",
          "name": "from",
          "type": "address"
        },
        {
          "internalType": "address",
          "name": "to",
          "type": "address"
        },
        {
          "internalType": "uint256",
          "name": "tokenId",
          "type": "uint256"
        },
        {
          "internalType": "bytes",
          "name": "data",
          "type": "bytes"
        }
      ],
      "name": "safeTransferFrom",
      "outputs": [],
      "stateMutability": "nonpayable",
      "type": "function"
    },
    {
      "inputs": [
        {
          "internalType": "address",
          "name": "operator",
          "type": "address"
        },
        {
          "internalType": "bool",
          "name": "approved",
          "type": "bool"
        }
      ],
      "name": "setApprovalForAll",
      "outputs": [],
      "stateMutability": "nonpayable",
      "type": "function"
    },
    {
      "inputs": [
        {
          "internalType": "bytes4",
          "name": "interfaceId",
          "type": "bytes4"
        }
      ],
      "name": "supportsInterface",
      "outputs": [
        {
          "internalType": "bool",
          "name": "",
          "type": "bool"
        }
      ],
      "stateMutability": "view",
      "type": "function"
    },
    {
      "inputs": [],
      "name": "symbol",
      "outputs": [
        {
          "internalType": "string",
          "name": "",
          "type": "string"
        }
      ],
      "stateMutability": "view",
      "type": "function"
    },
    {
      "inputs": [
        {
          "internalType": "uint256",
          "name": "tokenId",
          "type": "uint256"
        }
      ],
      "name": "tokenURI",
      "outputs": [
        {
          "internalType": "string",
          "name": "",
          "type": "string"
        }
      ],
      "stateMutability": "view",
      "type": "function"
    },
    {
      "inputs": [
        {
          "internalType": "address",
          "name": "from",
          "type": "address"
        },
        {
          "internalType": "address",
          "name": "to",
          "type": "address"
        },
        {
          "internalType": "uint256",
          "name": "tokenId",
          "type": "uint256"
        }
      ],
      "name": "transferFrom",
      "outputs": [],
      "stateMutability": "nonpayable",
      "type": "function"
    },
    {
      "inputs": [
        {
          "internalType": "address",
          "name": "newOwner",
          "type": "address"
        }
      ],
      "name": "transferOwnership",
      "outputs": [],
      "stateMutability": "nonpayable",
      "type": "function"
    },
    {
      "inputs": [],
      "name": "unpause",
      "outputs": [],
      "stateMutability": "nonpayable",
      "type": "function"
    }
  ],
  "bytecode": "0x60806040523480156200001157600080fd5b506040518060400160405280600781526020017f5068696c436170000000000000000000000000000000000000000000000000008152506040518060400160405280600481526020017f50484c430000000000000000000000000000000000000000000000000000000081525081600090816200008f91906200042d565b508060019081620000a191906200042d565b5050506000600660006101000a81548160ff021916908315150217905550620000df620000d3620000e560201b60201c565b620000ed60201b60201c565b62000514565b600033905090565b6000600660019054906101000a900473ffffffffffffffffffffffffffffffffffffffff16905081600660016101000a81548173ffffffffffffffffffffffffffffffffffffffff021916908373ffffffffffffffffffffffffffffffffffffffff1602179055508173ffffffffffffffffffffffffffffffffffffffff168173ffffffffffffffffffffffffffffffffffffffff167f8be0079c531659141344cd1fd0a4f28419497f9722a3daafe3b4186f6b6457e060405160405180910390a35050565b600081519050919050565b7f4e487b7100000000000000000000000000000000000000000000000000000000600052604160045260246000fd5b7f4e487b7100000000000000000000000000000000000000000000000000000000600052602260045260246000fd5b600060028204905060018216806200023557607f821691505b6020821081036200024b576200024a620001ed565b5b50919050565b60008190508160005260206000209050919050565b60006020601f8301049050919050565b600082821b905092915050565b600060088302620002b57fffffffffffffffffffffffffffffffffffffffffffffffffffffffffffffffff8262000276565b620002c1868362000276565b95508019841693508086168417925050509392505050565b6000819050919050565b6000819050919050565b60006200030e620003086200030284620002d9565b620002e3565b620002d9565b9050919050565b6000819050919050565b6200032a83620002ed565b62000342620003398262000315565b84845462000283565b825550505050565b600090565b620003596200034a565b620003668184846200031f565b505050565b5b818110156200038e57620003826000826200034f565b6001810190506200036c565b5050565b601f821115620003dd57620003a78162000251565b620003b28462000266565b81016020851015620003c2578190505b620003da620003d18562000266565b8301826200036b565b50505b505050565b600082821c905092915050565b60006200040260001984600802620003e2565b1980831691505092915050565b60006200041d8383620003ef565b9150826002028217905092915050565b6200043882620001b3565b67ffffffffffffffff811115620004545762000453620001be565b5b6200046082546200021c565b6200046d82828562000392565b600060209050601f831160018114620004a5576000841562000490578287015190505b6200049c85826200040f565b8655506200050c565b601f198416620004b58662000251565b60005b82811015620004df57848901518255600182019150602085019450602081019050620004b8565b86831015620004ff5784890151620004fb601f891682620003ef565b8355505b6001600288020188555050505b505050505050565b612ee080620005246000396000f3fe608060405234801561001057600080fd5b50600436106101375760003560e01c80636352211e116100b857806395d89b411161007c57806395d89b4114610300578063a22cb4651461031e578063b88d4fde1461033a578063c87b56dd14610356578063e985e9c514610386578063f2fde38b146103b657610137565b80636352211e1461026e57806370a082311461029e578063715018a6146102ce5780638456cb59146102d85780638da5cb5b146102e257610137565b80633f4ba83a116100ff5780633f4ba83a146101f257806340d097c3146101fc57806342842e0e1461021857806342966c68146102345780635c975abb1461025057610137565b806301ffc9a71461013c57806306fdde031461016c578063081812fc1461018a578063095ea7b3146101ba57806323b872dd146101d6575b600080fd5b61015660048036038101906101519190611f6f565b6103d2565b6040516101639190611fb7565b60405180910390f35b6101746104b4565b6040516101819190612062565b60405180910390f35b6101a4600480360381019061019f91906120ba565b610546565b6040516101b19190612128565b60405180910390f35b6101d460048036038101906101cf919061216f565b61058c565b005b6101f060048036038101906101eb91906121af565b6106a3565b005b6101fa610703565b005b61021660048036038101906102119190612202565b610715565b005b610232600480360381019061022d91906121af565b610743565b005b61024e600480360381019061024991906120ba565b610763565b005b6102586107bf565b6040516102659190611fb7565b60405180910390f35b610288600480360381019061028391906120ba565b6107d6565b6040516102959190612128565b60405180910390f35b6102b860048036038101906102b39190612202565b61085c565b6040516102c5919061223e565b60405180910390f35b6102d6610913565b005b6102e0610927565b005b6102ea610939565b6040516102f79190612128565b60405180910390f35b610308610963565b6040516103159190612062565b60405180910390f35b61033860048036038101906103339190612285565b6109f5565b005b610354600480360381019061034f91906123fa565b610a0b565b005b610370600480360381019061036b91906120ba565b610a6d565b60405161037d9190612062565b60405180910390f35b6103a0600480360381019061039b919061247d565b610ad5565b6040516103ad9190611fb7565b60405180910390f35b6103d060048036038101906103cb9190612202565b610b69565b005b60007f80ac58cd000000000000000000000000000000000000000000000000000000007bffffffffffffffffffffffffffffffffffffffffffffffffffffffff1916827bffffffffffffffffffffffffffffffffffffffffffffffffffffffff1916148061049d57507f5b5e139f000000000000000000000000000000000000000000000000000000007bffffffffffffffffffffffffffffffffffffffffffffffffffffffff1916827bffffffffffffffffffffffffffffffffffffffffffffffffffffffff1916145b806104ad57506104ac82610bec565b5b9050919050565b6060600080546104c3906124ec565b80601f01602080910402602001604051908101604052809291908181526020018280546104ef906124ec565b801561053c5780601f106105115761010080835404028352916020019161053c565b820191906000526020600020905b81548152906001019060200180831161051f57829003601f168201915b5050505050905090565b600061055182610c56565b6004600083815260200190815260200160002060009054906101000a900473ffffffffffffffffffffffffffffffffffffffff169050919050565b6000610597826107d6565b90508073ffffffffffffffffffffffffffffffffffffffff168373ffffffffffffffffffffffffffffffffffffffff1603610607576040517f08c379a00000000000000000000000000000000000000000000000000000000081526004016105fe9061258f565b60405180910390fd5b8073ffffffffffffffffffffffffffffffffffffffff16610626610ca1565b73ffffffffffffffffffffffffffffffffffffffff16148061065557506106548161064f610ca1565b610ad5565b5b610694576040517f08c379a000000000000000000000000000000000000000000000000000000000815260040161068b90612621565b60405180910390fd5b61069e8383610ca9565b505050565b6106b46106ae610ca1565b82610d62565b6106f3576040517f08c379a00000000000000000000000000000000000000000000000000000000081526004016106ea906126b3565b60405180910390fd5b6106fe838383610df7565b505050565b61070b6110f0565b61071361116e565b565b61071d6110f0565b600061072960076111d1565b905061073560076111df565b61073f82826111f5565b5050565b61075e83838360405180602001604052806000815250610a0b565b505050565b61077461076e610ca1565b82610d62565b6107b3576040517f08c379a00000000000000000000000000000000000000000000000000000000081526004016107aa906126b3565b60405180910390fd5b6107bc81611213565b50565b6000600660009054906101000a900460ff16905090565b6000806107e283611361565b9050600073ffffffffffffffffffffffffffffffffffffffff168173ffffffffffffffffffffffffffffffffffffffff1603610853576040517f08c379a000000000000000000000000000000000000000000000000000000000815260040161084a9061271f565b60405180910390fd5b80915050919050565b60008073ffffffffffffffffffffffffffffffffffffffff168273ffffffffffffffffffffffffffffffffffffffff16036108cc576040517f08c379a00000000000000000000000000000000000000000000000000000000081526004016108c3906127b1565b60405180910390fd5b600360008373ffffffffffffffffffffffffffffffffffffffff1673ffffffffffffffffffffffffffffffffffffffff168152602001908152602001600020549050919050565b61091b6110f0565b610925600061139e565b565b61092f6110f0565b610937611464565b565b6000600660019054906101000a900473ffffffffffffffffffffffffffffffffffffffff16905090565b606060018054610972906124ec565b80601f016020809104026020016040519081016040528092919081815260200182805461099e906124ec565b80156109eb5780601f106109c0576101008083540402835291602001916109eb565b820191906000526020600020905b8154815290600101906020018083116109ce57829003601f168201915b5050505050905090565b610a07610a00610ca1565b83836114c7565b5050565b610a1c610a16610ca1565b83610d62565b610a5b576040517f08c379a0000000000000000000000000000000000000000000000000000000008152600401610a52906126b3565b60405180910390fd5b610a6784848484611633565b50505050565b6060610a7882610c56565b6000610a8261168f565b90506000815111610aa25760405180602001604052806000815250610acd565b80610aac846116a6565b604051602001610abd92919061280d565b6040516020818303038152906040525b915050919050565b6000600560008473ffffffffffffffffffffffffffffffffffffffff1673ffffffffffffffffffffffffffffffffffffffff16815260200190815260200160002060008373ffffffffffffffffffffffffffffffffffffffff1673ffffffffffffffffffffffffffffffffffffffff16815260200190815260200160002060009054906101000a900460ff16905092915050565b610b716110f0565b600073ffffffffffffffffffffffffffffffffffffffff168173ffffffffffffffffffffffffffffffffffffffff1603610be0576040517f08c379a0000000000000000000000000000000000000000000000000000000008152600401610bd7906128a3565b60405180910390fd5b610be98161139e565b50565b60007f01ffc9a7000000000000000000000000000000000000000000000000000000007bffffffffffffffffffffffffffffffffffffffffffffffffffffffff1916827bffffffffffffffffffffffffffffffffffffffffffffffffffffffff1916149050919050565b610c5f81611774565b610c9e576040517f08c379a0000000000000000000000000000000000000000000000000000000008152600401610c959061271f565b60405180910390fd5b50565b600033905090565b816004600083815260200190815260200160002060006101000a81548173ffffffffffffffffffffffffffffffffffffffff021916908373ffffffffffffffffffffffffffffffffffffffff160217905550808273ffffffffffffffffffffffffffffffffffffffff16610d1c836107d6565b73ffffffffffffffffffffffffffffffffffffffff167f8c5be1e5ebec7d5bd14f71427d1e84f3dd0314c0f7b2291e5b200ac8c7c3b92560405160405180910390a45050565b600080610d6e836107d6565b90508073ffffffffffffffffffffffffffffffffffffffff168473ffffffffffffffffffffffffffffffffffffffff161480610db05750610daf8185610ad5565b5b80610dee57508373ffffffffffffffffffffffffffffffffffffffff16610dd684610546565b73ffffffffffffffffffffffffffffffffffffffff16145b91505092915050565b8273ffffffffffffffffffffffffffffffffffffffff16610e17826107d6565b73ffffffffffffffffffffffffffffffffffffffff1614610e6d576040517f08c379a0000000000000000000000000000000000000000000000000000000008152600401610e6490612935565b60405180910390fd5b600073ffffffffffffffffffffffffffffffffffffffff168273ffffffffffffffffffffffffffffffffffffffff1603610edc576040517f08c379a0000000000000000000000000000000000000000000000000000000008152600401610ed3906129c7565b60405180910390fd5b610ee983838360016117b5565b8273ffffffffffffffffffffffffffffffffffffffff16610f09826107d6565b73ffffffffffffffffffffffffffffffffffffffff1614610f5f576040517f08c379a0000000000000000000000000000000000000000000000000000000008152600401610f5690612935565b60405180910390fd5b6004600082815260200190815260200160002060006101000a81549073ffffffffffffffffffffffffffffffffffffffff02191690556001600360008573ffffffffffffffffffffffffffffffffffffffff1673ffffffffffffffffffffffffffffffffffffffff168152602001908152602001600020600082825403925050819055506001600360008473ffffffffffffffffffffffffffffffffffffffff1673ffffffffffffffffffffffffffffffffffffffff16815260200190815260200160002060008282540192505081905550816002600083815260200190815260200160002060006101000a81548173ffffffffffffffffffffffffffffffffffffffff021916908373ffffffffffffffffffffffffffffffffffffffff160217905550808273ffffffffffffffffffffffffffffffffffffffff168473ffffffffffffffffffffffffffffffffffffffff167fddf252ad1be2c89b69c2b068fc378daa952ba7f163c4a11628f55a4df523b3ef60405160405180910390a46110eb83838360016117cf565b505050565b6110f8610ca1565b73ffffffffffffffffffffffffffffffffffffffff16611116610939565b73ffffffffffffffffffffffffffffffffffffffff161461116c576040517f08c379a000000000000000000000000000000000000000000000000000000000815260040161116390612a33565b60405180910390fd5b565b6111766117d5565b6000600660006101000a81548160ff0219169083151502179055507f5db9ee0a495bf2e6ff9c91a7834c1ba4fdd244a5e8aa4e537bd38aeae4b073aa6111ba610ca1565b6040516111c79190612128565b60405180910390a1565b600081600001549050919050565b6001816000016000828254019250508190555050565b61120f82826040518060200160405280600081525061181e565b5050565b600061121e826107d6565b905061122e8160008460016117b5565b611237826107d6565b90506004600083815260200190815260200160002060006101000a81549073ffffffffffffffffffffffffffffffffffffffff02191690556001600360008373ffffffffffffffffffffffffffffffffffffffff1673ffffffffffffffffffffffffffffffffffffffff168152602001908152602001600020600082825403925050819055506002600083815260200190815260200160002060006101000a81549073ffffffffffffffffffffffffffffffffffffffff021916905581600073ffffffffffffffffffffffffffffffffffffffff168273ffffffffffffffffffffffffffffffffffffffff167fddf252ad1be2c89b69c2b068fc378daa952ba7f163c4a11628f55a4df523b3ef60405160405180910390a461135d8160008460016117cf565b5050565b60006002600083815260200190815260200160002060009054906101000a900473ffffffffffffffffffffffffffffffffffffffff169050919050565b6000600660019054906101000a900473ffffffffffffffffffffffffffffffffffffffff16905081600660016101000a81548173ffffffffffffffffffffffffffffffffffffffff021916908373ffffffffffffffffffffffffffffffffffffffff1602179055508173ffffffffffffffffffffffffffffffffffffffff168173ffffffffffffffffffffffffffffffffffffffff167f8be0079c531659141344cd1fd0a4f28419497f9722a3daafe3b4186f6b6457e060405160405180910390a35050565b61146c611879565b6001600660006101000a81548160ff0219169083151502179055507f62e78cea01bee320cd4e420270b5ea74000d11b0c9f74754ebdbfc544b05a2586114b0610ca1565b6040516114bd9190612128565b60405180910390a1565b8173ffffffffffffffffffffffffffffffffffffffff168373ffffffffffffffffffffffffffffffffffffffff1603611535576040517f08c379a000000000000000000000000000000000000000000000000000000000815260040161152c90612a9f565b60405180910390fd5b80600560008573ffffffffffffffffffffffffffffffffffffffff1673ffffffffffffffffffffffffffffffffffffffff16815260200190815260200160002060008473ffffffffffffffffffffffffffffffffffffffff1673ffffffffffffffffffffffffffffffffffffffff16815260200190815260200160002060006101000a81548160ff0219169083151502179055508173ffffffffffffffffffffffffffffffffffffffff168373ffffffffffffffffffffffffffffffffffffffff167f17307eab39ab6107e8899845ad3d59bd9653f200f220920489ca2b5937696c31836040516116269190611fb7565b60405180910390a3505050565b61163e848484610df7565b61164a848484846118c3565b611689576040517f08c379a000000000000000000000000000000000000000000000000000000000815260040161168090612b31565b60405180910390fd5b50505050565b606060405180602001604052806000815250905090565b6060600060016116b584611a4a565b01905060008167ffffffffffffffff8111156116d4576116d36122cf565b5b6040519080825280601f01601f1916602001820160405280156117065781602001600182028036833780820191505090505b509050600082602001820190505b600115611769578080600190039150507f3031323334353637383961626364656600000000000000000000000000000000600a86061a8153600a858161175d5761175c612b51565b5b04945060008503611714575b819350505050919050565b60008073ffffffffffffffffffffffffffffffffffffffff1661179683611361565b73ffffffffffffffffffffffffffffffffffffffff1614159050919050565b6117bd611879565b6117c984848484611b9d565b50505050565b50505050565b6117dd6107bf565b61181c576040517f08c379a000000000000000000000000000000000000000000000000000000000815260040161181390612bcc565b60405180910390fd5b565b6118288383611cc3565b61183560008484846118c3565b611874576040517f08c379a000000000000000000000000000000000000000000000000000000000815260040161186b90612b31565b60405180910390fd5b505050565b6118816107bf565b156118c1576040517f08c379a00000000000000000000000000000000000000000000000000000000081526004016118b890612c38565b60405180910390fd5b565b60006118e48473ffffffffffffffffffffffffffffffffffffffff16611ee0565b15611a3d578373ffffffffffffffffffffffffffffffffffffffff1663150b7a0261190d610ca1565b8786866040518563ffffffff1660e01b815260040161192f9493929190612cad565b6020604051808303816000875af192505050801561196b57506040513d601f19601f820116820180604052508101906119689190612d0e565b60015b6119ed573d806000811461199b576040519150601f19603f3d011682016040523d82523d6000602084013e6119a0565b606091505b5060008151036119e5576040517f08c379a00000000000000000000000000000000000000000000000000000000081526004016119dc90612b31565b60405180910390fd5b805181602001fd5b63150b7a0260e01b7bffffffffffffffffffffffffffffffffffffffffffffffffffffffff1916817bffffffffffffffffffffffffffffffffffffffffffffffffffffffff191614915050611a42565b600190505b949350505050565b600080600090507a184f03e93ff9f4daa797ed6e38ed64bf6a1f0100000000000000008310611aa8577a184f03e93ff9f4daa797ed6e38ed64bf6a1f0100000000000000008381611a9e57611a9d612b51565b5b0492506040810190505b6d04ee2d6d415b85acef81000000008310611ae5576d04ee2d6d415b85acef81000000008381611adb57611ada612b51565b5b0492506020810190505b662386f26fc100008310611b1457662386f26fc100008381611b0a57611b09612b51565b5b0492506010810190505b6305f5e1008310611b3d576305f5e1008381611b3357611b32612b51565b5b0492506008810190505b6127108310611b62576127108381611b5857611b57612b51565b5b0492506004810190505b60648310611b855760648381611b7b57611b7a612b51565b5b0492506002810190505b600a8310611b94576001810190505b80915050919050565b6001811115611cbd57600073ffffffffffffffffffffffffffffffffffffffff168473ffffffffffffffffffffffffffffffffffffffff1614611c315780600360008673ffffffffffffffffffffffffffffffffffffffff1673ffffffffffffffffffffffffffffffffffffffff1681526020019081526020016000206000828254611c299190612d6a565b925050819055505b600073ffffffffffffffffffffffffffffffffffffffff168373ffffffffffffffffffffffffffffffffffffffff1614611cbc5780600360008573ffffffffffffffffffffffffffffffffffffffff1673ffffffffffffffffffffffffffffffffffffffff1681526020019081526020016000206000828254611cb49190612d9e565b925050819055505b5b50505050565b600073ffffffffffffffffffffffffffffffffffffffff168273ffffffffffffffffffffffffffffffffffffffff1603611d32576040517f08c379a0000000000000000000000000000000000000000000000000000000008152600401611d2990612e1e565b60405180910390fd5b611d3b81611774565b15611d7b576040517f08c379a0000000000000000000000000000000000000000000000000000000008152600401611d7290612e8a565b60405180910390fd5b611d896000838360016117b5565b611d9281611774565b15611dd2576040517f08c379a0000000000000000000000000000000000000000000000000000000008152600401611dc990612e8a565b60405180910390fd5b6001600360008473ffffffffffffffffffffffffffffffffffffffff1673ffffffffffffffffffffffffffffffffffffffff16815260200190815260200160002060008282540192505081905550816002600083815260200190815260200160002060006101000a81548173ffffffffffffffffffffffffffffffffffffffff021916908373ffffffffffffffffffffffffffffffffffffffff160217905550808273ffffffffffffffffffffffffffffffffffffffff16600073ffffffffffffffffffffffffffffffffffffffff167fddf252ad1be2c89b69c2b068fc378daa952ba7f163c4a11628f55a4df523b3ef60405160405180910390a4611edc6000838360016117cf565b5050565b6000808273ffffffffffffffffffffffffffffffffffffffff163b119050919050565b6000604051905090565b600080fd5b600080fd5b60007fffffffff0000000000000000000000000000000000000000000000000000000082169050919050565b611f4c81611f17565b8114611f5757600080fd5b50565b600081359050611f6981611f43565b92915050565b600060208284031215611f8557611f84611f0d565b5b6000611f9384828501611f5a565b91505092915050565b60008115159050919050565b611fb181611f9c565b82525050565b6000602082019050611fcc6000830184611fa8565b92915050565b600081519050919050565b600082825260208201905092915050565b60005b8381101561200c578082015181840152602081019050611ff1565b60008484015250505050565b6000601f19601f8301169050919050565b600061203482611fd2565b61203e8185611fdd565b935061204e818560208601611fee565b61205781612018565b840191505092915050565b6000602082019050818103600083015261207c8184612029565b905092915050565b6000819050919050565b61209781612084565b81146120a257600080fd5b50565b6000813590506120b48161208e565b92915050565b6000602082840312156120d0576120cf611f0d565b5b60006120de848285016120a5565b91505092915050565b600073ffffffffffffffffffffffffffffffffffffffff82169050919050565b6000612112826120e7565b9050919050565b61212281612107565b82525050565b600060208201905061213d6000830184612119565b92915050565b61214c81612107565b811461215757600080fd5b50565b60008135905061216981612143565b92915050565b6000806040838503121561218657612185611f0d565b5b60006121948582860161215a565b92505060206121a5858286016120a5565b9150509250929050565b6000806000606084860312156121c8576121c7611f0d565b5b60006121d68682870161215a565b93505060206121e78682870161215a565b92505060406121f8868287016120a5565b9150509250925092565b60006020828403121561221857612217611f0d565b5b60006122268482850161215a565b91505092915050565b61223881612084565b82525050565b6000602082019050612253600083018461222f565b92915050565b61226281611f9c565b811461226d57600080fd5b50565b60008135905061227f81612259565b92915050565b6000806040838503121561229c5761229b611f0d565b5b60006122aa8582860161215a565b92505060206122bb85828601612270565b9150509250929050565b600080fd5b600080fd5b7f4e487b7100000000000000000000000000000000000000000000000000000000600052604160045260246000fd5b61230782612018565b810181811067ffffffffffffffff82111715612326576123256122cf565b5b80604052505050565b6000612339611f03565b905061234582826122fe565b919050565b600067ffffffffffffffff821115612365576123646122cf565b5b61236e82612018565b9050602081019050919050565b82818337600083830152505050565b600061239d6123988461234a565b61232f565b9050828152602081018484840111156123b9576123b86122ca565b5b6123c484828561237b565b509392505050565b600082601f8301126123e1576123e06122c5565b5b81356123f184826020860161238a565b91505092915050565b6000806000806080858703121561241457612413611f0d565b5b60006124228782880161215a565b94505060206124338782880161215a565b9350506040612444878288016120a5565b925050606085013567ffffffffffffffff81111561246557612464611f12565b5b612471878288016123cc565b91505092959194509250565b6000806040838503121561249457612493611f0d565b5b60006124a28582860161215a565b92505060206124b38582860161215a565b9150509250929050565b7f4e487b7100000000000000000000000000000000000000000000000000000000600052602260045260246000fd5b6000600282049050600182168061250457607f821691505b602082108103612517576125166124bd565b5b50919050565b7f4552433732313a20617070726f76616c20746f2063757272656e74206f776e6560008201527f7200000000000000000000000000000000000000000000000000000000000000602082015250565b6000612579602183611fdd565b91506125848261251d565b604082019050919050565b600060208201905081810360008301526125a88161256c565b9050919050565b7f4552433732313a20617070726f76652063616c6c6572206973206e6f7420746f60008201527f6b656e206f776e6572206f7220617070726f76656420666f7220616c6c000000602082015250565b600061260b603d83611fdd565b9150612616826125af565b604082019050919050565b6000602082019050818103600083015261263a816125fe565b9050919050565b7f4552433732313a2063616c6c6572206973206e6f7420746f6b656e206f776e6560008201527f72206f7220617070726f76656400000000000000000000000000000000000000602082015250565b600061269d602d83611fdd565b91506126a882612641565b604082019050919050565b600060208201905081810360008301526126cc81612690565b9050919050565b7f4552433732313a20696e76616c696420746f6b656e2049440000000000000000600082015250565b6000612709601883611fdd565b9150612714826126d3565b602082019050919050565b60006020820190508181036000830152612738816126fc565b9050919050565b7f4552433732313a2061646472657373207a65726f206973206e6f74206120766160008201527f6c6964206f776e65720000000000000000000000000000000000000000000000602082015250565b600061279b602983611fdd565b91506127a68261273f565b604082019050919050565b600060208201905081810360008301526127ca8161278e565b9050919050565b600081905092915050565b60006127e782611fd2565b6127f181856127d1565b9350612801818560208601611fee565b80840191505092915050565b600061281982856127dc565b915061282582846127dc565b91508190509392505050565b7f4f776e61626c653a206e6577206f776e657220697320746865207a65726f206160008201527f6464726573730000000000000000000000000000000000000000000000000000602082015250565b600061288d602683611fdd565b915061289882612831565b604082019050919050565b600060208201905081810360008301526128bc81612880565b9050919050565b7f4552433732313a207472616e736665722066726f6d20696e636f72726563742060008201527f6f776e6572000000000000000000000000000000000000000000000000000000602082015250565b600061291f602583611fdd565b915061292a826128c3565b604082019050919050565b6000602082019050818103600083015261294e81612912565b9050919050565b7f4552433732313a207472616e7366657220746f20746865207a65726f2061646460008201527f7265737300000000000000000000000000000000000000000000000000000000602082015250565b60006129b1602483611fdd565b91506129bc82612955565b604082019050919050565b600060208201905081810360008301526129e0816129a4565b9050919050565b7f4f776e61626c653a2063616c6c6572206973206e6f7420746865206f776e6572600082015250565b6000612a1d602083611fdd565b9150612a28826129e7565b602082019050919050565b60006020820190508181036000830152612a4c81612a10565b9050919050565b7f4552433732313a20617070726f766520746f2063616c6c657200000000000000600082015250565b6000612a89601983611fdd565b9150612a9482612a53565b602082019050919050565b60006020820190508181036000830152612ab881612a7c565b9050919050565b7f4552433732313a207472616e7366657220746f206e6f6e20455243373231526560008201527f63656976657220696d706c656d656e7465720000000000000000000000000000602082015250565b6000612b1b603283611fdd565b9150612b2682612abf565b604082019050919050565b60006020820190508181036000830152612b4a81612b0e565b9050919050565b7f4e487b7100000000000000000000000000000000000000000000000000000000600052601260045260246000fd5b7f5061757361626c653a206e6f7420706175736564000000000000000000000000600082015250565b6000612bb6601483611fdd565b9150612bc182612b80565b602082019050919050565b60006020820190508181036000830152612be581612ba9565b9050919050565b7f5061757361626c653a2070617573656400000000000000000000000000000000600082015250565b6000612c22601083611fdd565b9150612c2d82612bec565b602082019050919050565b60006020820190508181036000830152612c5181612c15565b9050919050565b600081519050919050565b600082825260208201905092915050565b6000612c7f82612c58565b612c898185612c63565b9350612c99818560208601611fee565b612ca281612018565b840191505092915050565b6000608082019050612cc26000830187612119565b612ccf6020830186612119565b612cdc604083018561222f565b8181036060830152612cee8184612c74565b905095945050505050565b600081519050612d0881611f43565b92915050565b600060208284031215612d2457612d23611f0d565b5b6000612d3284828501612cf9565b91505092915050565b7f4e487b7100000000000000000000000000000000000000000000000000000000600052601160045260246000fd5b6000612d7582612084565b9150612d8083612084565b9250828203905081811115612d9857612d97612d3b565b5b92915050565b6000612da982612084565b9150612db483612084565b9250828201905080821115612dcc57612dcb612d3b565b5b92915050565b7f4552433732313a206d696e7420746f20746865207a65726f2061646472657373600082015250565b6000612e08602083611fdd565b9150612e1382612dd2565b602082019050919050565b60006020820190508181036000830152612e3781612dfb565b9050919050565b7f4552433732313a20746f6b656e20616c7265616479206d696e74656400000000600082015250565b6000612e74601c83611fdd565b9150612e7f82612e3e565b602082019050919050565b60006020820190508181036000830152612ea381612e67565b905091905056fea2646970667358221220c093db6e83f051861dc762a031e6f13e5444688016bec73197663c2baa5c8b1464736f6c63430008110033",
  "linkReferences": {},
  "deployedLinkReferences": {}
}